:100000000C9463000C948B000C948B000C948B006C
:100010000C948B000C948B000C948B000C948B0034
:100020000C948B000C948B000C948B000C948B0024
:100030000C948B000C948B000C948B000C948B0014
:100040000C9484020C948B000C94F4020C94CE0259
:100050000C948B000C948B000C948B000C948B00F4
:100060000C948B000C948B000000000023002600F1
:10007000290000000000240027002A0000000000E2
:10008000250028002B0004040404040404040202D4
:100090000202020203030303030301020408102007
:1000A0004080010204081020010204081020000012
:1000B0000008000201000003040700000000000027
:1000C00000002603230511241FBECFEFD8E0DEBFBA
:1000D000CDBF21E0A6E3B1E001C01D92A73EB2076B
:1000E000E1F711E0A0E0B1E0E0EDFEE002C0059034
:1000F0000D92A633B107D9F710E0C2E6D0E004C0F4
:100100002197FE010E946305C136D107C9F70E94FD
:10011000B1030C945B070C940000833081F028F449
:10012000813099F08230A9F008958730A9F08830A5
:10013000C9F08430B1F4809180008F7D03C080913C
:1001400080008F7780938000089584B58F7784BD79
:10015000089584B58F7DFBCF8091B0008F77809319
:10016000B00008958091B0008F7DF9CF1F93CF9399
:10017000DF93E1EBF0E09491EDE9F0E0D491E9E870
:10018000F0E0C491CC23B9F0182F992319F0892FEE
:100190000E948D00EC2FF0E0EE0FFF1FE458FF4FA0
:1001A000A591B4918FB7F894EC91111108C0D09536
:1001B000DE23DC938FBFDF91CF911F910895DE2B5B
:1001C000F8CFCF93DF9390E0FC01E656FF4F2491E8
:1001D0008A579F4FFC0184918823D1F090E0880FCB
:1001E000991FFC01EE58FF4FA591B491FC01E45812
:1001F000FF4FC591D491623071F49FB7F8943C9150
:10020000822F809583238C93E8812E2B28839FBF98
:10021000DF91CF9108958FB7F894EC912E2B2C930A
:100220008FBFF6CF3FB7F89480913C0190913D018C
:10023000A0913E01B0913F0126B5A89B05C02F3F7C
:1002400019F00196A11DB11D3FBFBA2FA92F982FFC
:100250008827BC01CD01620F711D811D911D42E0F7
:10026000660F771F881F991F4A95D1F708958F92BF
:100270009F92AF92BF92CF92DF92EF92FF926B016B
:100280007C010E9412014B015C01C114D104E10404
:10029000F104B9F00E941201681979098A099B09D1
:1002A000683E73408105910580F321E0C21AD108B0
:1002B000E108F10888EE880E83E0981EA11CB11CAD
:1002C000E4CFFF90EF90DF90CF90BF90AF909F90E2
:1002D0008F900895AF92BF92CF92DF92EF92FF92EC
:1002E0000F931F93CF93DF936C017B018B01040F5E
:1002F000151FEB015E01AE18BF08C017D10759F0FA
:100300006991D601ED91FC910190F081E02DC6013B
:100310000995892B79F7C501DF91CF911F910F9135
:10032000FF90EF90DF90CF90BF90AF900895FC01C9
:10033000538D448D252F30E0842F90E0821B930B4A
:10034000541710F0CF96089501970895FC01918DF0
:10035000828D981761F0A28DAE0FBF2FB11D5D96F3
:100360008C91928D9F5F9F73928F90E008958FEF95
:100370009FEF0895FC01918D828D981731F0828D49
:10038000E80FF11D858D90E008958FEF9FEF0895A0
:10039000FC01918D228D892F90E0805C9F4F821B04
:1003A00091098F739927089580E491E00E94C80114
:1003B00021E0892B09F420E0822F089580E090E06D
:1003C000892B29F00E94D40181110C94000008951A
:1003D000FC01A48DA80FB92FB11DA35ABF4F2C91BA
:1003E000848D90E001968F739927848FA689B789B1
:1003F0002C93A089B1898C91837080648C93938DA8
:10040000848D981306C00288F389E02D80818F7D4A
:1004100080830895EF92FF920F931F93CF93DF9302
:10042000EC0181E0888F9B8D8C8D98131AC0E88930
:10043000F989808185FF15C09FB7F894EE89FF89FF
:100440006083E889F98980818370806480839FBF9D
:1004500081E090E0DF91CF911F910F91FF90EF909D
:100460000895F62E0B8D10E00F5F1F4F0F731127AD
:10047000E02E8C8D8E110CC00FB607FCFACFE889E8
:10048000F989808185FFF5CFCE010E94E801F1CF87
:10049000EB8DEC0FFD2FF11DE35AFF4FF0829FB75C
:1004A000F8940B8FEA89FB8980818062CFCFCF934C
:1004B000DF93EC01888D8823B9F0AA89BB89E8898C
:1004C000F9898C9185FD03C0808186FD0DC00FB632
:1004D00007FCF7CF8C9185FFF2CF808185FFEDCFB0
:1004E000CE010E94E801E9CFDF91CF910895FC0190
:1004F00001900020E9F73197AF01481B590BBC016F
:1005000080E491E00C946A011F920F920FB60F9253
:1005100011242F933F938F939F93AF93BF93809119
:10052000380190913901A0913A01B0913B0130918D
:10053000370123E0230F2D3758F50196A11DB11D7A
:10054000209337018093380190933901A0933A01A9
:10055000B0933B0180913C0190913D01A0913E01FF
:10056000B0913F010196A11DB11D80933C01909374
:100570003D01A0933E01B0933F01BF91AF919F9188
:100580008F913F912F910F900FBE0F901F90189554
:1005900026E8230F0296A11DB11DD2CF1F920F9204
:1005A0000FB60F9211242F933F934F935F936F9346
:1005B0007F938F939F93AF93BF93EF93FF9380E4C9
:1005C00091E00E94E801FF91EF91BF91AF919F915F
:1005D0008F917F916F915F914F913F912F910F90EC
:1005E0000FBE0F901F9018951F920F920FB60F928B
:1005F00011242F938F939F93EF93FF93E0915001DA
:10060000F09151018081E0915601F091570182FDF6
:100610001BC09081809159018F5F8F7320915A0187
:10062000821741F0E0915901F0E0E05CFE4F958FB8
:1006300080935901FF91EF919F918F912F910F908E
:100640000FBE0F901F9018958081F4CF1092430138
:100650001092420188EE93E0A0E0B0E08093440164
:1006600090934501A0934601B09347018AE091E041
:10067000909341018093400185EC90E090934D016F
:1006800080934C0184EC90E090934F0180934E0155
:1006900080EC90E0909351018093500181EC90E0C8
:1006A000909353018093520182EC90E09093550116
:1006B0008093540186EC90E090935701809356010B
:1006C0001092590110925A0110925B0110925C0134
:1006D0001092DE011092DD011092E0011092DF0114
:1006E0001092E2011092E1016BE070E090E080E096
:1006F0000E948E06009701F19093DE018093DD0148
:100700002AE030E03093E0012093DF012091E10105
:100710003091E201232B11F4FC0110828AE090E079
:100720009093E2018093E10168E171E08091DD0145
:100730009091DE010C9454078091DD019091DE01CF
:10074000009711F00E9405061092DE011092DD0163
:100750001092E2011092E1011092E0011092DF018B
:100760000895CF93DF93CDB7DEB7A1970FB6F89476
:10077000DEBF0FBECDBF789484B5826084BD84B5E2
:10078000816084BD85B5826085BD85B5816085BD8C
:1007900080916E00816080936E0010928100809144
:1007A00081008260809381008091810081608093CC
:1007B0008100809180008160809380008091B100F1
:1007C00084608093B1008091B00081608093B0001C
:1007D00080917A00846080937A0080917A008260B0
:1007E00080937A0080917A00816080937A00809172
:1007F0007A00806880937A001092C10061E083E003
:100800000E94E10062E082E00E94E100E09150017C
:10081000F091510182E08083E0914C01F0914D0113
:100820001082E0914E01F0914F018FEC8083109285
:100830005801E0915401F091550186E08083E091E8
:100840005201F0915301808180618083E0915201D7
:10085000F0915301808188608083E0915201F09192
:100860005301808180688083E0915201F0915301AF
:1008700080818F7D808364EF71E080E090E00E9452
:10088000370141EB642E40E0742E50E0852E50E09D
:10089000952E2CE9222E20E0322E38E8432E30E02F
:1008A000532EE0EBF0E08491F1011491F2010491F8
:1008B00001113DC083E291E00E94770282E391E062
:1008C0000E947702F12CE12C8091E1019091E201EC
:1008D000E816F90608F0A5C0E091DD01F091DE010F
:1008E000309709F03BC010923601E6E3F1E0A080BA
:1008F00087E0C82ED12C0A2C000CBB08C5010C2C9B
:1009000002C0959587950A94E2F78C010170112732
:1009100080FF02C000E810E061E083E00E94E10097
:1009200001151105F1F480E00E94B6003FC081116D
:100930000E948D00E02FF0E0EE0FFF1FE859FF4FFF
:10094000A591B4918C91182309F4B4CF19A281E335
:1009500088A3CE0180960E94770269C0EE0DFF1D2C
:10096000C6CFF3018491833009F441C048F481304B
:10097000C9F08230B9F100381105A9F681E0D4CF71
:10098000873009F43EC0883009F443C0843099F7B9
:100990008091800080628093800010938B00009390
:1009A0008A0004C084B5806884BD07BD64E670E039
:1009B00080E090E00E943701F1E0CF1AD10808F002
:1009C0009DCF61E083E00E94E10080E00E94B600DC
:1009D00064E670E080E090E00E943701EFEFEE1AED
:1009E000FE0A72CF84B5806284BD08BDDFCF8091DE
:1009F00080008068809380001093890000938800B5
:100A0000D5CF8091B00080688093B0000093B30090
:100A1000CDCF8091B00080628093B0000093B4008D
:100A2000C5CF68EE73E080E090E00E94370181144A
:100A3000910409F436CF0E94D401882309F429CF08
:100A40000E94000026CF8091DD019091DE01009789
:100A500011F00C94050608952F923F924F925F92E9
:100A60006F927F928F929F92AF92BF92CF92DF92BE
:100A7000EF92FF920F931F93CF93DF93CDB7DEB723
:100A8000CA1BDB0B0FB6F894DEBF0FBECDBF0994B7
:100A90002A88398848885F846E847D848C849B840E
:100AA000AA84B984C884DF80EE80FD800C811B811C
:100AB000AA81B981CE0FD11D0FB6F894DEBF0FBE4B
:100AC000CDBFED010895EE0FFF1F0590F491E02DCD
:100AD00009940F931F93CF93DF938230910510F405
:100AE00082E090E0E091E501F091E60130E020E065
:100AF000B0E0A0E0309799F42115310509F44AC01F
:100B0000281B390B24303105D8F58A819B8161156A
:100B1000710589F1FB0193838283FE0111C040813D
:100B200051810281138148175907E0F0481759078E
:100B300099F4109761F012960C93129713961C93E8
:100B40003296CF01DF91CF911F910F9108950093BD
:100B5000E5011093E601F4CF2115310551F042175C
:100B6000530738F0A901DB019A01BD01DF01F8014B
:100B7000C1CFEF01F9CF9093E6018093E501CDCF8E
:100B8000FE01E20FF31F81939193225031093983C3
:100B90002883D7CF2091E3013091E401232B41F446
:100BA00020910201309103013093E4012093E3018D
:100BB00020910001309101012115310541F42DB73B
:100BC0003EB74091040150910501241B350BE09183
:100BD000E301F091E401E217F307A0F42E1B3F0BB1
:100BE0002817390778F0AC014E5F5F4F241735079F
:100BF00048F04E0F5F1F5093E4014093E30181934F
:100C000091939FCFF0E0E0E09CCFCF93DF930097EC
:100C1000E9F0FC01329713821282A091E501B091B4
:100C2000E601ED0130E020E01097A1F42081318150
:100C3000820F931F2091E3013091E40128173907B7
:100C400009F061C0F093E401E093E301DF91CF91FB
:100C50000895EA01CE17DF07E8F54A815B819E011E
:100C600041155105B1F7E901FB83EA834991599197
:100C7000C40FD51FEC17FD0761F4808191810296A6
:100C8000840F951FE90199838883828193819B83D7
:100C90008A83F0E0E0E012968D919C911397009783
:100CA000B9F52D913C911197CD010296820F931FBA
:100CB0002091E3013091E4012817390739F6309784
:100CC00051F51092E6011092E501B093E401A09372
:100CD000E301BCCFD383C28340815181840F951F30
:100CE000C817D90761F44E5F5F4F88819981480F1B
:100CF000591F518340838A819B819383828321156D
:100D0000310509F0B0CFF093E601E093E5019ECF05
:100D1000FD01DC01C0CF13821282D7CFB0E0A0E08A
:100D2000E4E9F6E00C942E058C01009751F4CB0118
:100D30000E9469058C01C801CDB7DEB7E0E10C94D3
:100D40004A05FC01E60FF71F9C0122503109E2170A
:100D5000F30708F49DC0D901CD91DC911197C61716
:100D6000D70798F0C530D10530F3CE010497861728
:100D7000970708F3C61BD70B2297C193D1936D93A6
:100D80007C93CF010E940506D6CF5B01AC1ABD0A49
:100D90004C018C0E9D1EA091E501B091E601512CF5
:100DA000412CF12CE12C109731F58091E3019091C9
:100DB000E4018815990509F05CC04616570608F04D
:100DC00058C08091000190910101009741F48DB7C6
:100DD0009EB74091040150910501841B950BE817C3
:100DE000F90708F055C0F093E401E093E301F9013D
:100DF00071836083A0CF8D919C91119712966C9016
:100E0000129713967C901397A815B90559F56C01A4
:100E100042E0C40ED11CCA14DB0420F1AC014A1913
:100E20005B09DA011296159780F062827382518312
:100E30004083D9016D937C93E114F10471F0D701E3
:100E40001396FC93EE93129776CF22968C0F9D1FEC
:100E5000F90191838083F301EFCFF093E601E093F2
:100E6000E50169CF4816590608F42C017D01D3012C
:100E70009ACFCB010E9469057C01009749F0AE0131
:100E8000B8010E944B07C8010E940506870153CF95
:100E900010E000E050CFFB01DC0102C001900D9298
:100EA00041505040D8F70895FB01DC0101900D92AC
:100EB0000020E1F7089510E0C2E6D0E004C0FE0192
:100EC0000E9463052196C336D107C9F7F894FFCF76
:100ED0000000E7018000000000000A026A0197019B
:100EE0005702C801A601BA0148454C4C4F204C4955
:100EF000464900427574746F6E2070726573736535
:060F000064000D0A000070
:00000001FF
